:100000000A128A11DA2F00308A000408840A820753
:100010000034533468346F347734203454346134CA
:1000200067343A3400344734723461346E34743493
:100030006534643421340034443465346E346934B6
:0A004000653464342E342E3400348D
:100C5800683465346C346C346F34003480308316F7
:100C680003138700831203138701243083160313A9
:100C780098009030831203139800193083160313D9
:100C880099000800F400740884000A128A110320ED
:100C98000A128A11003A03190800740884000A121B
:100CA8008A1103200A128A110A128A1117270A12B6
:100CB8008A110130F3007308F407472E83120313D7
:100CC80007151A30F600F830F500F50B692EF60B0B
:100CD800692E000083120313071187140710C03010
:100CE8000A128A11E8260A128A110B300A128A118E
:100CF80046260800C0300A128A11E8260A128A110C
:100D080014300A128A1146260A128A118312031312
:100D1800071507140330F7008A30F6005630F5003F
:100D2800F50B942EF60B942EF70B942E9B2E831214
:100D38000313071187100800831603138601831213
:100D48000313860102300A128A11E8260A128A1150
:100D580028300A128A11E8260A128A110C300A125F
:100D68008A11E8260A128A1101300A128A11E82625
:100D78000A128A1180300A128A11E8260800F50042
:100D8800CD2E0130F2007208F5070130F20072082A
:100D9800F0077508840083130008F20070088400C7
:100DA8000003FF3A7207F3007308F4007408031D88
:100DB800E22E750884000008031DC52E7408F00093
:100DC800F101F01BF1030800F2007208F0398312F8
:100DD800031386000610861006150730F1007D30D3
:100DE800F000F00BF52EF10BF52E8312031306110C
:100DF8007208F00003300310F00DFF3E031DFF2EB4
:100E08000310700DF039860006108610061507309D
:100E1800F1007D30F000F00B0F2FF10B0F2F831234
:100E2800031306110800F2007208F0398312031345
:100E380086000614861006150730F1007D30F00094
:100E4800F00B242FF10B242F8312031306117208C1
:100E5800F00003300310F00DFF3E031D2E2F03108A
:100E6800700DF03986000614861006150730F1005B
:100E78007D30F000F00B3E2FF10B3E2F8312031351
:100E880006110800F400F201F301831203138C1E0B
:100E9800492F1A08F00072087407F10071088400DD
:100EA80070088313800072087407F00070088400CB
:100EB8000D3000060319692F72087407F0007008D6
:100EC80084000A300006031D702F72087407F000B2
:100ED80070088400800108000130F2070318F30A43
:100EE8000030F307492F34308400831203133A0883
:100EF80083138000840A3B088000840A3C08800031
:100F0800840A3D088000840A3E088000840A3F085D
:100F180080000A128A1132260A128A110A128A11CC
:100F2800A0260A128A1180300A128A11E8260A12AB
:100F38008A1101300A128A1146260A128A112030B3
:100F48000A128A1146270A128A112030F8007808F6
:100F5800F00034300A128A11C3260A128A11700866
:100F68007104031DBD2F0A128A1162260A128A1102
:100F7800C22F0A128A117E260A128A110630FA0036
:100F88001330F900B130F800F80BC82FF90BC82F4F
:100F9800FA0BC82FCF2F01300A128A11E8260A123D
:100FA8008A118312031307108710972F0A128A11C8
:100FB8002C260A128A11BA000A128A112D260A1240
:100FC8008A11BB000A128A112E260A128A11BC0045
:100FD8000A128A112F260A128A11BD000A128A11D2
:100FE80030260A128A11BE000A128A113126BF0061
:080FF80083010A128A11772F10
:02400E0039FF78
:00000001FF
